{
  "abi": [
    {
      "inputs": [
        {
          "internalType": "address",
          "name": "_owner",
          "type": "address"
        },
        {
          "internalType": "address",
          "name": "_outputToken",
          "type": "address"
        },
        {
          "internalType": "address",
          "name": "_inputToken",
          "type": "address"
        },
        {
          "internalType": "uint256",
          "name": "_term",
          "type": "uint256"
        }
      ],
      "stateMutability": "nonpayable",
      "type": "constructor"
    },
    {
      "inputs": [],
      "name": "OverFlow",
      "type": "error"
    },
    {
      "inputs": [],
      "name": "Unauthorized",
      "type": "error"
    },
    {
      "anonymous": false,
      "inputs": [
        {
          "indexed": true,
          "internalType": "address",
          "name": "bonder",
          "type": "address"
        },
        {
          "indexed": true,
          "internalType": "uint256",
          "name": "bondId",
          "type": "uint256"
        },
        {
          "indexed": false,
          "internalType": "uint256",
          "name": "output",
          "type": "uint256"
        }
      ],
      "name": "BondRedeemed",
      "type": "event"
    },
    {
      "anonymous": false,
      "inputs": [
        {
          "indexed": true,
          "internalType": "address",
          "name": "bonder",
          "type": "address"
        },
        {
          "indexed": false,
          "internalType": "uint256",
          "name": "amountIn",
          "type": "uint256"
        },
        {
          "indexed": false,
          "internalType": "uint256",
          "name": "output",
          "type": "uint256"
        }
      ],
      "name": "BondSold",
      "type": "event"
    },
    {
      "anonymous": false,
      "inputs": [
        {
          "indexed": true,
          "internalType": "address",
          "name": "sender",
          "type": "address"
        },
        {
          "indexed": true,
          "internalType": "address",
          "name": "to",
          "type": "address"
        },
        {
          "indexed": false,
          "internalType": "uint256",
          "name": "senderBondId",
          "type": "uint256"
        },
        {
          "indexed": false,
          "internalType": "uint256",
          "name": "recipientBondId",
          "type": "uint256"
        }
      ],
      "name": "BondTransfered",
      "type": "event"
    },
    {
      "anonymous": false,
      "inputs": [
        {
          "indexed": false,
          "internalType": "uint256",
          "name": "newValue",
          "type": "uint256"
        }
      ],
      "name": "HalfLifeSet",
      "type": "event"
    },
    {
      "anonymous": false,
      "inputs": [
        {
          "indexed": false,
          "internalType": "uint256",
          "name": "newValue",
          "type": "uint256"
        }
      ],
      "name": "LastUpdateSet",
      "type": "event"
    },
    {
      "anonymous": false,
      "inputs": [
        {
          "indexed": false,
          "internalType": "uint256",
          "name": "newValue",
          "type": "uint256"
        }
      ],
      "name": "LevelBipsSet",
      "type": "event"
    },
    {
      "anonymous": false,
      "inputs": [
        {
          "indexed": true,
          "internalType": "address",
          "name": "user",
          "type": "address"
        },
        {
          "indexed": true,
          "internalType": "address",
          "name": "newOwner",
          "type": "address"
        }
      ],
      "name": "OwnershipTransferred",
      "type": "event"
    },
    {
      "anonymous": false,
      "inputs": [
        {
          "indexed": false,
          "internalType": "bool",
          "name": "paused",
          "type": "bool"
        }
      ],
      "name": "Paused",
      "type": "event"
    },
    {
      "anonymous": false,
      "inputs": [
        {
          "indexed": false,
          "internalType": "uint256",
          "name": "newValue",
          "type": "uint256"
        }
      ],
      "name": "VirtualInputReservesSet",
      "type": "event"
    },
    {
      "anonymous": false,
      "inputs": [
        {
          "indexed": false,
          "internalType": "uint256",
          "name": "newValue",
          "type": "uint256"
        }
      ],
      "name": "VirtualOutputReservesSet",
      "type": "event"
    },
    {
      "inputs": [],
      "name": "availableDebt",
      "outputs": [
        {
          "internalType": "uint256",
          "name": "",
          "type": "uint256"
        }
      ],
      "stateMutability": "view",
      "type": "function"
    },
    {
      "inputs": [
        {
          "internalType": "address",
          "name": "",
          "type": "address"
        },
        {
          "internalType": "uint256",
          "name": "",
          "type": "uint256"
        }
      ],
      "name": "bondOf",
      "outputs": [
        {
          "internalType": "uint256",
          "name": "owed",
          "type": "uint256"
        },
        {
          "internalType": "uint256",
          "name": "redeemed",
          "type": "uint256"
        },
        {
          "internalType": "uint256",
          "name": "creation",
          "type": "uint256"
        }
      ],
      "stateMutability": "view",
      "type": "function"
    },
    {
      "inputs": [
        {
          "internalType": "uint256",
          "name": "amountIn",
          "type": "uint256"
        }
      ],
      "name": "getAmountOut",
      "outputs": [
        {
          "internalType": "uint256",
          "name": "output",
          "type": "uint256"
        }
      ],
      "stateMutability": "view",
      "type": "function"
    },
    {
      "inputs": [],
      "name": "inputToken",
      "outputs": [
        {
          "internalType": "address",
          "name": "",
          "type": "address"
        }
      ],
      "stateMutability": "view",
      "type": "function"
    },
    {
      "inputs": [
        {
          "internalType": "bytes[]",
          "name": "data",
          "type": "bytes[]"
        }
      ],
      "name": "multicall",
      "outputs": [
        {
          "internalType": "bytes[]",
          "name": "results",
          "type": "bytes[]"
        }
      ],
      "stateMutability": "nonpayable",
      "type": "function"
    },
    {
      "inputs": [],
      "name": "outputToken",
      "outputs": [
        {
          "internalType": "address",
          "name": "",
          "type": "address"
        }
      ],
      "stateMutability": "view",
      "type": "function"
    },
    {
      "inputs": [],
      "name": "owner",
      "outputs": [
        {
          "internalType": "address",
          "name": "",
          "type": "address"
        }
      ],
      "stateMutability": "view",
      "type": "function"
    },
    {
      "inputs": [],
      "name": "paused",
      "outputs": [
        {
          "internalType": "bool",
          "name": "",
          "type": "bool"
        }
      ],
      "stateMutability": "view",
      "type": "function"
    },
    {
      "inputs": [
        {
          "internalType": "address",
          "name": "account",
          "type": "address"
        }
      ],
      "name": "positionCountOf",
      "outputs": [
        {
          "internalType": "uint256",
          "name": "",
          "type": "uint256"
        }
      ],
      "stateMutability": "view",
      "type": "function"
    },
    {
      "inputs": [],
      "name": "pricing",
      "outputs": [
        {
          "internalType": "uint128",
          "name": "virtualInputReserves",
          "type": "uint128"
        },
        {
          "internalType": "uint128",
          "name": "virtualOutputReserves",
          "type": "uint128"
        },
        {
          "internalType": "uint64",
          "name": "lastUpdate",
          "type": "uint64"
        },
        {
          "internalType": "uint96",
          "name": "halfLife",
          "type": "uint96"
        },
        {
          "internalType": "uint96",
          "name": "levelBips",
          "type": "uint96"
        }
      ],
      "stateMutability": "view",
      "type": "function"
    },
    {
      "inputs": [
        {
          "internalType": "address",
          "name": "to",
          "type": "address"
        },
        {
          "internalType": "uint256",
          "name": "amountIn",
          "type": "uint256"
        },
        {
          "internalType": "uint256",
          "name": "minOutput",
          "type": "uint256"
        }
      ],
      "name": "purchaseBond",
      "outputs": [
        {
          "internalType": "uint256",
          "name": "output",
          "type": "uint256"
        }
      ],
      "stateMutability": "nonpayable",
      "type": "function"
    },
    {
      "inputs": [
        {
          "internalType": "address",
          "name": "to",
          "type": "address"
        },
        {
          "internalType": "uint256",
          "name": "bondId",
          "type": "uint256"
        }
      ],
      "name": "redeemBond",
      "outputs": [
        {
          "internalType": "uint256",
          "name": "output",
          "type": "uint256"
        }
      ],
      "stateMutability": "nonpayable",
      "type": "function"
    },
    {
      "inputs": [
        {
          "internalType": "address",
          "name": "to",
          "type": "address"
        },
        {
          "internalType": "uint256[]",
          "name": "bondIds",
          "type": "uint256[]"
        }
      ],
      "name": "redeemBondBatch",
      "outputs": [
        {
          "internalType": "uint256",
          "name": "totalOutput",
          "type": "uint256"
        }
      ],
      "stateMutability": "nonpayable",
      "type": "function"
    },
    {
      "inputs": [
        {
          "internalType": "uint96",
          "name": "newValue",
          "type": "uint96"
        }
      ],
      "name": "setHalfLife",
      "outputs": [],
      "stateMutability": "nonpayable",
      "type": "function"
    },
    {
      "inputs": [],
      "name": "setLastUpdate",
      "outputs": [],
      "stateMutability": "nonpayable",
      "type": "function"
    },
    {
      "inputs": [
        {
          "internalType": "uint96",
          "name": "newValue",
          "type": "uint96"
        }
      ],
      "name": "setLevelBips",
      "outputs": [],
      "stateMutability": "nonpayable",
      "type": "function"
    },
    {
      "inputs": [],
      "name": "setPause",
      "outputs": [],
      "stateMutability": "nonpayable",
      "type": "function"
    },
    {
      "inputs": [
        {
          "internalType": "uint128",
          "name": "newValue",
          "type": "uint128"
        }
      ],
      "name": "setVirtualInputReserves",
      "outputs": [],
      "stateMutability": "nonpayable",
      "type": "function"
    },
    {
      "inputs": [
        {
          "internalType": "uint128",
          "name": "newValue",
          "type": "uint128"
        }
      ],
      "name": "setVirtualOutputReserves",
      "outputs": [],
      "stateMutability": "nonpayable",
      "type": "function"
    },
    {
      "inputs": [],
      "name": "spotPriceFor",
      "outputs": [
        {
          "internalType": "uint256",
          "name": "",
          "type": "uint256"
        }
      ],
      "stateMutability": "view",
      "type": "function"
    },
    {
      "inputs": [],
      "name": "term",
      "outputs": [
        {
          "internalType": "uint256",
          "name": "",
          "type": "uint256"
        }
      ],
      "stateMutability": "view",
      "type": "function"
    },
    {
      "inputs": [],
      "name": "totalDebt",
      "outputs": [
        {
          "internalType": "uint256",
          "name": "",
          "type": "uint256"
        }
      ],
      "stateMutability": "view",
      "type": "function"
    },
    {
      "inputs": [
        {
          "internalType": "address",
          "name": "to",
          "type": "address"
        },
        {
          "internalType": "uint256",
          "name": "bondId",
          "type": "uint256"
        }
      ],
      "name": "transferBond",
      "outputs": [],
      "stateMutability": "nonpayable",
      "type": "function"
    },
    {
      "inputs": [
        {
          "internalType": "address",
          "name": "newOwner",
          "type": "address"
        }
      ],
      "name": "transferOwnership",
      "outputs": [],
      "stateMutability": "payable",
      "type": "function"
    },
    {
      "inputs": [],
      "name": "virtualInputReverves",
      "outputs": [
        {
          "internalType": "uint256",
          "name": "",
          "type": "uint256"
        }
      ],
      "stateMutability": "view",
      "type": "function"
    }
  ],
  "bytecode": {
    "object": "0x60e06040523480156200001157600080fd5b5060405162001af138038062001af1833981016040819052620000349162000103565b600080546001600160a01b0319166001600160a01b03861690811782556040518692907f8be0079c531659141344cd1fd0a4f28419497f9722a3daafe3b4186f6b6457e0908290a35060808190526001600160a01b0383811660a052821660c0526000805460ff60a01b1916600160a01b179055604051600181527f0e2fb031ee032dc02d8011dc50b816eb450cf856abd8261680dac74f72165bd29060200160405180910390a15050505062000155565b80516001600160a01b0381168114620000fe57600080fd5b919050565b600080600080608085870312156200011a57600080fd5b6200012585620000e6565b93506200013560208601620000e6565b92506200014560408601620000e6565b6060959095015193969295505050565b60805160a05160c05161193b620001b66000396000818161017d01526107f401526000818161041601528181610b7401528181610fef015261103a0152600081816103b50152818161146c0152818161149501526114bd015261193b6000f3fe6080604052600436106101665760003560e01c8063ac9650d8116100d1578063d72ef1c01161008a578063dd5b23df11610064578063dd5b23df1461050d578063eea096ee1461052d578063f2fde38b1461054d578063fc7b9c181461056057600080fd5b8063d72ef1c0146104a2578063d94b910e146104c2578063dcfc7ddf146104f857600080fd5b8063ac9650d8146103d7578063c1d8d1d914610404578063c23b78f814610438578063c3a13a4c14610458578063c778345b14610478578063d431b1ac1461048d57600080fd5b80637ce91411116101235780637ce914111461027257806385d28ee6146103135780638da5cb5b1461034e5780639434f1b91461036e578063994396de14610383578063a10ffbed146103a357600080fd5b806301b60ef21461016b5780630c25f0f5146101bc5780631ccc875f146101de578063419265b7146102015780635c195217146102215780635c975abb14610241575b600080fd5b34801561017757600080fd5b5061019f7f000000000000000000000000000000000000000000000000000000000000000081565b6040516001600160a01b0390911681526020015b60405180910390f35b3480156101c857600080fd5b506101dc6101d736600461152f565b610576565b005b3480156101ea57600080fd5b506101f361060f565b6040519081526020016101b3565b34801561020d57600080fd5b506101f361021c366004611574565b6106df565b34801561022d57600080fd5b506101f361023c3660046115a7565b610917565b34801561024d57600080fd5b5060005461026290600160a01b900460ff1681565b60405190151581526020016101b3565b34801561027e57600080fd5b506002546003546102c8916001600160801b0380821692600160801b909204169067ffffffffffffffff8116906001600160601b03600160401b8204811691600160a01b90041685565b604080516001600160801b03968716815295909416602086015267ffffffffffffffff909216928401929092526001600160601b03918216606084015216608082015260a0016101b3565b34801561031f57600080fd5b5061033361032e3660046115c0565b6109e7565b604080519384526020840192909252908201526060016101b3565b34801561035a57600080fd5b5060005461019f906001600160a01b031681565b34801561037a57600080fd5b506101dc610a29565b34801561038f57600080fd5b506101f361039e3660046115c0565b610ab9565b3480156103af57600080fd5b506101f37f000000000000000000000000000000000000000000000000000000000000000081565b3480156103e357600080fd5b506103f76103f23660046115ea565b610c14565b6040516101b3919061165f565b34801561041057600080fd5b5061019f7f000000000000000000000000000000000000000000000000000000000000000081565b34801561044457600080fd5b506101dc6104533660046116f1565b610c93565b34801561046457600080fd5b506101dc6104733660046116f1565b610d0a565b34801561048457600080fd5b506101f3610d8a565b34801561049957600080fd5b506101dc610e24565b3480156104ae57600080fd5b506101f36104bd366004611730565b610e9e565b3480156104ce57600080fd5b506101f36104dd366004611801565b6001600160a01b031660009081526004602052604090205490565b34801561050457600080fd5b506101f3611016565b34801561051957600080fd5b506101dc6105283660046115c0565b6110b4565b34801561053957600080fd5b506101dc61054836600461152f565b611204565b6101dc61055b366004611801565b611287565b34801561056c57600080fd5b506101f360015481565b6000546001600160a01b031633146105a0576040516282b42960e81b815260040160405180910390fd5b6003805473ffffffffffffffffffffffff00000000000000001916600160401b6001600160601b038416908102919091179091556040519081526002907f2f173a2352c762532a28d317c74cd47ed867076246d19a6afdb34bd98437d22a906020015b60405180910390a15050565b6040805160a0810182526002546001600160801b03808216808452600160801b90920416602083015260035467ffffffffffffffff81169383018490526001600160601b03600160401b820481166060850152600160a01b90910416608083015260009283916106a4916106839042611832565b84606001516001600160601b031685608001516001600160601b03166112fc565b90506106d8670de0b6b3a76400008284602001516001600160801b03166106c9611016565b6106d39190611845565b61135c565b9250505090565b60028054600091906001600160801b031682036107305760405162461bcd60e51b815260206004820152600a602482015269214c495155494449545960b01b60448201526064015b60405180910390fd5b600061073a611016565b8254600184015491925061079891879184916001600160801b03600160801b830481169216906107749067ffffffffffffffff1642611832565b60018801546001600160601b03600160401b8204811691600160a01b900416611383565b92508383101580156107aa5750828110155b6107e35760405162461bcd60e51b815260206004820152600a6024820152691090510813d55514155560b21b6044820152606401610727565b60005461081f906001600160a01b037f0000000000000000000000000000000000000000000000000000000000000000811691339116886113bd565b60018054840190556108308561140b565b8254839060009061084b9084906001600160801b0316611858565b82546001600160801b039182166101009390930a9283029190920219909116179055506001600160a01b03861660009081526004602090815260408083208151606081018352878152808401858152428285019081528354600181810186559488529590962091516003909502909101938455519083015591516002909101555133907f3dbe987d8c318f20a1d550dd52db9a8a20cc25aab2f175c7ccafb306ee48d210906109069088908790918252602082015260400190565b60405180910390a250509392505050565b6040805160a0810182526002546001600160801b038082168352600160801b90910416602082015260035467ffffffffffffffff8116928201929092526001600160601b03600160401b830481166060830152600160a01b90920490911660808201526000906109e083610989611016565b83602001516001600160801b031684600001516001600160801b0316856040015167ffffffffffffffff16426109bf9190611832565b86606001516001600160601b031687608001516001600160601b0316611383565b9392505050565b60046020528160005260406000208181548110610a0357600080fd5b600091825260209091206003909102018054600182015460029092015490935090915083565b6000546001600160a01b03163314610a53576040516282b42960e81b815260040160405180910390fd5b6002610a5e42611435565b60018201805467ffffffffffffffff191667ffffffffffffffff929092169190911790556040514281527f587f4cf03b0981e48f7decd985bce1662f349dca9fb19d5814866634d87822c8906020015b60405180910390a150565b60008054600160a01b900460ff1615610ae45760405162461bcd60e51b815260040161072790611878565b336000908152600460205260408120805484908110610b0557610b05611898565b90600052602060002090600302019050610b2c81600001548260010154836002015461145b565b91508115610bd3578160016000828254610b469190611832565b9250508190555081816001016000828254610b619190611845565b90915550610b9b90506001600160a01b037f00000000000000000000000000000000000000000000000000000000000000001685846114eb565b604051828152839033907f51c99f515c87b0d95ba97f616edd182e8f161c4932eac17c6fefe9dab58b77b19060200160405180910390a35b60008211610c0d5760405162461bcd60e51b81526020600482015260076024820152660853d55514155560ca1b6044820152606401610727565b5092915050565b60608115610c8d5750604051818152602001600582901b808483378101805b825185018035602082018337600080823584305af4610c56573d6000803e3d6000fd5b508083526020830192503d81523d6000602083013e3d01603f0167ffffffffffffffe016818310610c335760405192508060405250505b92915050565b6000546001600160a01b03163314610cbd576040516282b42960e81b815260040160405180910390fd5b600280546001600160801b03908116600160801b9184169182021782556040519081527f17aa1611ed521faae8ed083c6de85088ac9a17814957c321382686e74dc9809f90602001610603565b6000546001600160a01b03163314610d34576040516282b42960e81b815260040160405180910390fd5b600280546fffffffffffffffffffffffffffffffff19166001600160801b03831690811782556040519081527f22bb386a0c4767ba49a1679a7b5a08e1af243a135c7336233821c0dbc1aebb1490602001610603565b6040805160a0810182526002546001600160801b03808216808452600160801b90920416602083015260035467ffffffffffffffff81169383018490526001600160601b03600160401b820481166060850152600160a01b909104166080830152600092610e1e9190610dfd9042611832565b83606001516001600160601b031684608001516001600160601b03166112fc565b91505090565b6000546001600160a01b03163314610e4e576040516282b42960e81b815260040160405180910390fd5b6000805460ff60a01b198116600160a01b9182900460ff1615918202179091556040518181527f0e2fb031ee032dc02d8011dc50b816eb450cf856abd8261680dac74f72165bd290602001610aae565b60008054600160a01b900460ff1615610ec95760405162461bcd60e51b815260040161072790611878565b815160005b81811015610fc9573360009081526004602052604081208551869084908110610ef957610ef9611898565b602002602001015181548110610f1157610f11611898565b906000526020600020906003020190506000610f3a82600001548360010154846002015461145b565b905080826001016000828254610f509190611845565b90915550610f6090508186611845565b9450858381518110610f7457610f74611898565b6020026020010151336001600160a01b03167f51c99f515c87b0d95ba97f616edd182e8f161c4932eac17c6fefe9dab58b77b183604051610fb791815260200190565b60405180910390a35050600101610ece565b508160016000828254610fdc9190611832565b90915550610c0d90506001600160a01b037f00000000000000000000000000000000000000000000000000000000000000001685846114eb565b6001546040516370a0823160e01b8152306004820152600091906001600160a01b037f000000000000000000000000000000000000000000000000000000000000000016906370a0823190602401602060405180830381865afa158015611081573d6000803e3d6000fd5b505050506040513d601f19601f820116820180604052508101906110a591906118ae565b6110af9190611832565b905090565b600054600160a01b900460ff16156110de5760405162461bcd60e51b815260040161072790611878565b3360009081526004602052604081208054839081106110ff576110ff611898565b6000918252602080832060408051606081018252600390940290910180548452600181015484840152600201548382015233845260049091529091208054919250908390811061115157611151611898565b60009182526020808320600392830201838155600180820185905560029182018590556001600160a01b038816808652600484526040808720805480850182558189528689208a519190980290970196875594880151928601929092558682015194909201939093559283905254905133917f3d7a7edfc7b138c151d31aecb9c6eb8ff81df3cabad50f3d6dddae4ccc071043916111f791878252602082015260400190565b60405180910390a3505050565b6000546001600160a01b0316331461122e576040516282b42960e81b815260040160405180910390fd5b600380546001600160a01b0316600160a01b6001600160601b038416908102919091179091556040519081526002907f21a44909ab11af57e0a9ad613d0d05503f9380b7c4a8dd2661b10ec9a7817c7e90602001610603565b6000546001600160a01b031633146112b1576040516282b42960e81b815260040160405180910390fd5b600080546001600160a01b0319166001600160a01b0383169081178255604051909133917f8be0079c531659141344cd1fd0a4f28419497f9722a3daafe3b4186f6b6457e09190a350565b600061130883856118dd565b85901c9050600161132461131c85876118f1565b83908661135c565b61132f911c82611832565b9050611349826127106113428489611832565b919061135c565b6113539082611845565b95945050505050565b600082600019048411830215820261137c5763ad251c276000526004601cfd5b5091020490565b60006113b16113928789611845565b8961139f888888886112fc565b6113a99190611845565b8a919061135c565b98975050505050505050565b6040516323b872dd600052836020528260405281606052602060006064601c6000895af13d1560016000511417166113fd57637939f4246000526004601cfd5b600060605260405250505050565b6000600160801b821061143157604051631c073fc760e11b815260040160405180910390fd5b5090565b6000600160401b821061143157604051631c073fc760e11b815260040160405180910390fd5b6000806114688342611832565b90507f00000000000000000000000000000000000000000000000000000000000000008111156114b557507f00000000000000000000000000000000000000000000000000000000000000005b836114e186837f000000000000000000000000000000000000000000000000000000000000000061135c565b6113539190611832565b60405163a9059cbb6000528260205281604052602060006044601c6000885af13d156001600051141716611527576390b8ec186000526004601cfd5b604052505050565b60006020828403121561154157600080fd5b81356001600160601b03811681146109e057600080fd5b80356001600160a01b038116811461156f57600080fd5b919050565b60008060006060848603121561158957600080fd5b61159284611558565b95602085013595506040909401359392505050565b6000602082840312156115b957600080fd5b5035919050565b600080604083850312156115d357600080fd5b6115dc83611558565b946020939093013593505050565b600080602083850312156115fd57600080fd5b823567ffffffffffffffff8082111561161557600080fd5b818501915085601f83011261162957600080fd5b81358181111561163857600080fd5b8660208260051b850101111561164d57600080fd5b60209290920196919550909350505050565b6000602080830181845280855180835260408601915060408160051b87010192508387016000805b838110156116e357888603603f1901855282518051808852835b818110156116bc578281018a01518982018b015289016116a1565b508781018901849052601f01601f1916909601870195509386019391860191600101611687565b509398975050505050505050565b60006020828403121561170357600080fd5b81356001600160801b03811681146109e057600080fd5b634e487b7160e01b600052604160045260246000fd5b6000806040838503121561174357600080fd5b61174c83611558565b915060208084013567ffffffffffffffff8082111561176a57600080fd5b818601915086601f83011261177e57600080fd5b8135818111156117905761179061171a565b8060051b604051601f19603f830116810181811085821117156117b5576117b561171a565b6040529182528482019250838101850191898311156117d357600080fd5b938501935b828510156117f1578435845293850193928501926117d8565b8096505050505050509250929050565b60006020828403121561181357600080fd5b6109e082611558565b634e487b7160e01b600052601160045260246000fd5b81810381811115610c8d57610c8d61181c565b80820180821115610c8d57610c8d61181c565b6001600160801b03818116838216019080821115610c0d57610c0d61181c565b60208082526006908201526514105554d15160d21b604082015260600190565b634e487b7160e01b600052603260045260246000fd5b6000602082840312156118c057600080fd5b5051919050565b634e487b7160e01b600052601260045260246000fd5b6000826118ec576118ec6118c7565b500490565b600082611900576119006118c7565b50069056fea264697066735822122087700ffa0bf0427381a1441dd279e13e4d1ba7320cea40f98365f2cee236050c64736f6c63430008110033",
    "linkReferences": {}
  },
  "methodIdentifiers": {
    "availableDebt()": "dcfc7ddf",
    "bondOf(address,uint256)": "85d28ee6",
    "getAmountOut(uint256)": "5c195217",
    "inputToken()": "01b60ef2",
    "multicall(bytes[])": "ac9650d8",
    "outputToken()": "c1d8d1d9",
    "owner()": "8da5cb5b",
    "paused()": "5c975abb",
    "positionCountOf(address)": "d94b910e",
    "pricing()": "7ce91411",
    "purchaseBond(address,uint256,uint256)": "419265b7",
    "redeemBond(address,uint256)": "994396de",
    "redeemBondBatch(address,uint256[])": "d72ef1c0",
    "setHalfLife(uint96)": "0c25f0f5",
    "setLastUpdate()": "9434f1b9",
    "setLevelBips(uint96)": "eea096ee",
    "setPause()": "d431b1ac",
    "setVirtualInputReserves(uint128)": "c3a13a4c",
    "setVirtualOutputReserves(uint128)": "c23b78f8",
    "spotPriceFor()": "1ccc875f",
    "term()": "a10ffbed",
    "totalDebt()": "fc7b9c18",
    "transferBond(address,uint256)": "dd5b23df",
    "transferOwnership(address)": "f2fde38b",
    "virtualInputReverves()": "c778345b"
  },
  "id": 6
}