{
  "abi": [
    {
      "inputs": [],
      "name": "OverFlow",
      "type": "error"
    },
    {
      "inputs": [],
      "name": "Unauthorized",
      "type": "error"
    },
    {
      "anonymous": false,
      "inputs": [
        {
          "indexed": true,
          "internalType": "address",
          "name": "bonder",
          "type": "address"
        },
        {
          "indexed": true,
          "internalType": "uint256",
          "name": "bondId",
          "type": "uint256"
        },
        {
          "indexed": false,
          "internalType": "uint256",
          "name": "output",
          "type": "uint256"
        }
      ],
      "name": "BondRedeemed",
      "type": "event"
    },
    {
      "anonymous": false,
      "inputs": [
        {
          "indexed": true,
          "internalType": "address",
          "name": "bonder",
          "type": "address"
        },
        {
          "indexed": false,
          "internalType": "uint256",
          "name": "amountIn",
          "type": "uint256"
        },
        {
          "indexed": false,
          "internalType": "uint256",
          "name": "output",
          "type": "uint256"
        }
      ],
      "name": "BondSold",
      "type": "event"
    },
    {
      "anonymous": false,
      "inputs": [
        {
          "indexed": true,
          "internalType": "address",
          "name": "sender",
          "type": "address"
        },
        {
          "indexed": true,
          "internalType": "address",
          "name": "to",
          "type": "address"
        },
        {
          "indexed": false,
          "internalType": "uint256",
          "name": "senderBondId",
          "type": "uint256"
        },
        {
          "indexed": false,
          "internalType": "uint256",
          "name": "recipientBondId",
          "type": "uint256"
        }
      ],
      "name": "BondTransfered",
      "type": "event"
    },
    {
      "anonymous": false,
      "inputs": [
        {
          "indexed": false,
          "internalType": "uint256",
          "name": "newValue",
          "type": "uint256"
        }
      ],
      "name": "HalfLifeSet",
      "type": "event"
    },
    {
      "anonymous": false,
      "inputs": [
        {
          "indexed": false,
          "internalType": "uint256",
          "name": "newValue",
          "type": "uint256"
        }
      ],
      "name": "LastUpdateSet",
      "type": "event"
    },
    {
      "anonymous": false,
      "inputs": [
        {
          "indexed": false,
          "internalType": "uint256",
          "name": "newValue",
          "type": "uint256"
        }
      ],
      "name": "LevelBipsSet",
      "type": "event"
    },
    {
      "anonymous": false,
      "inputs": [
        {
          "indexed": true,
          "internalType": "address",
          "name": "user",
          "type": "address"
        },
        {
          "indexed": true,
          "internalType": "address",
          "name": "newOwner",
          "type": "address"
        }
      ],
      "name": "OwnershipTransferred",
      "type": "event"
    },
    {
      "anonymous": false,
      "inputs": [
        {
          "indexed": false,
          "internalType": "bool",
          "name": "paused",
          "type": "bool"
        }
      ],
      "name": "Paused",
      "type": "event"
    },
    {
      "anonymous": false,
      "inputs": [
        {
          "indexed": false,
          "internalType": "uint256",
          "name": "newValue",
          "type": "uint256"
        }
      ],
      "name": "VirtualInputReservesSet",
      "type": "event"
    },
    {
      "anonymous": false,
      "inputs": [
        {
          "indexed": false,
          "internalType": "uint256",
          "name": "newValue",
          "type": "uint256"
        }
      ],
      "name": "VirtualOutputReservesSet",
      "type": "event"
    },
    {
      "inputs": [],
      "name": "availableDebt",
      "outputs": [
        {
          "internalType": "uint256",
          "name": "",
          "type": "uint256"
        }
      ],
      "stateMutability": "view",
      "type": "function"
    },
    {
      "inputs": [
        {
          "internalType": "address",
          "name": "",
          "type": "address"
        },
        {
          "internalType": "uint256",
          "name": "",
          "type": "uint256"
        }
      ],
      "name": "bondOf",
      "outputs": [
        {
          "internalType": "uint256",
          "name": "owed",
          "type": "uint256"
        },
        {
          "internalType": "uint256",
          "name": "redeemed",
          "type": "uint256"
        },
        {
          "internalType": "uint256",
          "name": "creation",
          "type": "uint256"
        }
      ],
      "stateMutability": "view",
      "type": "function"
    },
    {
      "inputs": [
        {
          "internalType": "uint256",
          "name": "amountIn",
          "type": "uint256"
        }
      ],
      "name": "getAmountOut",
      "outputs": [
        {
          "internalType": "uint256",
          "name": "output",
          "type": "uint256"
        }
      ],
      "stateMutability": "view",
      "type": "function"
    },
    {
      "inputs": [
        {
          "internalType": "address",
          "name": "_owner",
          "type": "address"
        }
      ],
      "name": "initialize",
      "outputs": [],
      "stateMutability": "nonpayable",
      "type": "function"
    },
    {
      "inputs": [],
      "name": "initialized",
      "outputs": [
        {
          "internalType": "bool",
          "name": "",
          "type": "bool"
        }
      ],
      "stateMutability": "view",
      "type": "function"
    },
    {
      "inputs": [],
      "name": "inputToken",
      "outputs": [
        {
          "internalType": "address",
          "name": "",
          "type": "address"
        }
      ],
      "stateMutability": "pure",
      "type": "function"
    },
    {
      "inputs": [
        {
          "internalType": "bytes[]",
          "name": "data",
          "type": "bytes[]"
        }
      ],
      "name": "multicall",
      "outputs": [
        {
          "internalType": "bytes[]",
          "name": "results",
          "type": "bytes[]"
        }
      ],
      "stateMutability": "nonpayable",
      "type": "function"
    },
    {
      "inputs": [],
      "name": "outputToken",
      "outputs": [
        {
          "internalType": "address",
          "name": "",
          "type": "address"
        }
      ],
      "stateMutability": "pure",
      "type": "function"
    },
    {
      "inputs": [],
      "name": "owner",
      "outputs": [
        {
          "internalType": "address",
          "name": "",
          "type": "address"
        }
      ],
      "stateMutability": "view",
      "type": "function"
    },
    {
      "inputs": [],
      "name": "paused",
      "outputs": [
        {
          "internalType": "bool",
          "name": "",
          "type": "bool"
        }
      ],
      "stateMutability": "view",
      "type": "function"
    },
    {
      "inputs": [
        {
          "internalType": "address",
          "name": "account",
          "type": "address"
        }
      ],
      "name": "positionCountOf",
      "outputs": [
        {
          "internalType": "uint256",
          "name": "",
          "type": "uint256"
        }
      ],
      "stateMutability": "view",
      "type": "function"
    },
    {
      "inputs": [],
      "name": "pricing",
      "outputs": [
        {
          "internalType": "uint128",
          "name": "virtualInputReserves",
          "type": "uint128"
        },
        {
          "internalType": "uint128",
          "name": "virtualOutputReserves",
          "type": "uint128"
        },
        {
          "internalType": "uint64",
          "name": "lastUpdate",
          "type": "uint64"
        },
        {
          "internalType": "uint96",
          "name": "halfLife",
          "type": "uint96"
        },
        {
          "internalType": "uint96",
          "name": "levelBips",
          "type": "uint96"
        }
      ],
      "stateMutability": "view",
      "type": "function"
    },
    {
      "inputs": [
        {
          "internalType": "address",
          "name": "to",
          "type": "address"
        },
        {
          "internalType": "uint256",
          "name": "amountIn",
          "type": "uint256"
        },
        {
          "internalType": "uint256",
          "name": "minOutput",
          "type": "uint256"
        }
      ],
      "name": "purchaseBond",
      "outputs": [
        {
          "internalType": "uint256",
          "name": "output",
          "type": "uint256"
        }
      ],
      "stateMutability": "nonpayable",
      "type": "function"
    },
    {
      "inputs": [
        {
          "internalType": "address",
          "name": "to",
          "type": "address"
        },
        {
          "internalType": "uint256",
          "name": "bondId",
          "type": "uint256"
        }
      ],
      "name": "redeemBond",
      "outputs": [
        {
          "internalType": "uint256",
          "name": "output",
          "type": "uint256"
        }
      ],
      "stateMutability": "nonpayable",
      "type": "function"
    },
    {
      "inputs": [
        {
          "internalType": "address",
          "name": "to",
          "type": "address"
        },
        {
          "internalType": "uint256[]",
          "name": "bondIds",
          "type": "uint256[]"
        }
      ],
      "name": "redeemBondBatch",
      "outputs": [
        {
          "internalType": "uint256",
          "name": "totalOutput",
          "type": "uint256"
        }
      ],
      "stateMutability": "nonpayable",
      "type": "function"
    },
    {
      "inputs": [
        {
          "internalType": "contract Permit",
          "name": "token",
          "type": "address"
        },
        {
          "internalType": "uint256",
          "name": "value",
          "type": "uint256"
        },
        {
          "internalType": "uint256",
          "name": "deadline",
          "type": "uint256"
        },
        {
          "internalType": "uint8",
          "name": "v",
          "type": "uint8"
        },
        {
          "internalType": "bytes32",
          "name": "r",
          "type": "bytes32"
        },
        {
          "internalType": "bytes32",
          "name": "s",
          "type": "bytes32"
        }
      ],
      "name": "selfPermit",
      "outputs": [],
      "stateMutability": "nonpayable",
      "type": "function"
    },
    {
      "inputs": [
        {
          "internalType": "contract Permit",
          "name": "token",
          "type": "address"
        },
        {
          "internalType": "uint256",
          "name": "nonce",
          "type": "uint256"
        },
        {
          "internalType": "uint256",
          "name": "deadline",
          "type": "uint256"
        },
        {
          "internalType": "uint8",
          "name": "v",
          "type": "uint8"
        },
        {
          "internalType": "bytes32",
          "name": "r",
          "type": "bytes32"
        },
        {
          "internalType": "bytes32",
          "name": "s",
          "type": "bytes32"
        }
      ],
      "name": "selfPermitAllowed",
      "outputs": [],
      "stateMutability": "nonpayable",
      "type": "function"
    },
    {
      "inputs": [
        {
          "internalType": "uint96",
          "name": "newValue",
          "type": "uint96"
        }
      ],
      "name": "setHalfLife",
      "outputs": [],
      "stateMutability": "nonpayable",
      "type": "function"
    },
    {
      "inputs": [],
      "name": "setLastUpdate",
      "outputs": [],
      "stateMutability": "nonpayable",
      "type": "function"
    },
    {
      "inputs": [
        {
          "internalType": "uint96",
          "name": "newValue",
          "type": "uint96"
        }
      ],
      "name": "setLevelBips",
      "outputs": [],
      "stateMutability": "nonpayable",
      "type": "function"
    },
    {
      "inputs": [],
      "name": "setPause",
      "outputs": [],
      "stateMutability": "nonpayable",
      "type": "function"
    },
    {
      "inputs": [
        {
          "internalType": "uint128",
          "name": "newValue",
          "type": "uint128"
        }
      ],
      "name": "setVirtualInputReserves",
      "outputs": [],
      "stateMutability": "nonpayable",
      "type": "function"
    },
    {
      "inputs": [
        {
          "internalType": "uint128",
          "name": "newValue",
          "type": "uint128"
        }
      ],
      "name": "setVirtualOutputReserves",
      "outputs": [],
      "stateMutability": "nonpayable",
      "type": "function"
    },
    {
      "inputs": [],
      "name": "spotPrice",
      "outputs": [
        {
          "internalType": "uint256",
          "name": "",
          "type": "uint256"
        }
      ],
      "stateMutability": "view",
      "type": "function"
    },
    {
      "inputs": [],
      "name": "term",
      "outputs": [
        {
          "internalType": "uint256",
          "name": "",
          "type": "uint256"
        }
      ],
      "stateMutability": "pure",
      "type": "function"
    },
    {
      "inputs": [],
      "name": "totalDebt",
      "outputs": [
        {
          "internalType": "uint256",
          "name": "",
          "type": "uint256"
        }
      ],
      "stateMutability": "view",
      "type": "function"
    },
    {
      "inputs": [
        {
          "internalType": "address",
          "name": "to",
          "type": "address"
        },
        {
          "internalType": "uint256",
          "name": "bondId",
          "type": "uint256"
        }
      ],
      "name": "transferBond",
      "outputs": [],
      "stateMutability": "nonpayable",
      "type": "function"
    },
    {
      "inputs": [
        {
          "internalType": "address",
          "name": "newOwner",
          "type": "address"
        }
      ],
      "name": "transferOwnership",
      "outputs": [],
      "stateMutability": "payable",
      "type": "function"
    },
    {
      "inputs": [],
      "name": "virtualInputReverves",
      "outputs": [
        {
          "internalType": "uint256",
          "name": "",
          "type": "uint256"
        }
      ],
      "stateMutability": "view",
      "type": "function"
    }
  ],
  "bytecode": {
    "object": "0x608060405234801561001057600080fd5b50600080546001600160a01b0319168155604051819081907f8be0079c531659141344cd1fd0a4f28419497f9722a3daafe3b4186f6b6457e0908290a350611b428061005d6000396000f3fe6080604052600436106101c25760003560e01c8063ac9650d8116100f7578063d72ef1c011610095578063eea096ee11610064578063eea096ee14610599578063f2fde38b146105b9578063f3995c67146105cc578063fc7b9c18146105ec57600080fd5b8063d72ef1c01461050e578063d94b910e1461052e578063dcfc7ddf14610564578063dd5b23df1461057957600080fd5b8063c3a13a4c116100d1578063c3a13a4c146104a4578063c4d66de8146104c4578063c778345b146104e4578063d431b1ac146104f957600080fd5b8063ac9650d814610442578063c1d8d1d91461046f578063c23b78f81461048457600080fd5b80635c975abb116101645780638da5cb5b1161013e5780638da5cb5b146103d85780639434f1b9146103f8578063994396de1461040d578063a10ffbed1461042d57600080fd5b80635c975abb146102db5780637ce91411146102fc57806385d28ee61461039d57600080fd5b8063398482d8116101a0578063398482d814610258578063419265b71461027b5780634659a4941461029b5780635c195217146102bb57600080fd5b806301b60ef2146101c75780630c25f0f514610205578063158ef93e14610227575b600080fd5b3480156101d357600080fd5b503660011981013560f01c9003602c013560601c5b6040516001600160a01b0390911681526020015b60405180910390f35b34801561021157600080fd5b506102256102203660046116d0565b610607565b005b34801561023357600080fd5b5060005461024890600160a81b900460ff1681565b60405190151581526020016101fc565b34801561026457600080fd5b5061026d6106a0565b6040519081526020016101fc565b34801561028757600080fd5b5061026d610296366004611711565b610770565b3480156102a757600080fd5b506102256102b6366004611746565b610998565b3480156102c757600080fd5b5061026d6102d63660046117a8565b610a2d565b3480156102e757600080fd5b5060005461024890600160a01b900460ff1681565b34801561030857600080fd5b50600254600354610352916001600160801b0380821692600160801b909204169067ffffffffffffffff8116906001600160601b03600160401b8204811691600160a01b90041685565b604080516001600160801b03968716815295909416602086015267ffffffffffffffff909216928401929092526001600160601b03918216606084015216608082015260a0016101fc565b3480156103a957600080fd5b506103bd6103b83660046117c1565b610afd565b604080519384526020840192909252908201526060016101fc565b3480156103e457600080fd5b506000546101e8906001600160a01b031681565b34801561040457600080fd5b50610225610b3f565b34801561041957600080fd5b5061026d6104283660046117c1565b610bcf565b34801561043957600080fd5b5061026d610d13565b34801561044e57600080fd5b5061046261045d3660046117ed565b610d26565b6040516101fc9190611862565b34801561047b57600080fd5b506101e8610da5565b34801561049057600080fd5b5061022561049f3660046118f4565b610dbb565b3480156104b057600080fd5b506102256104bf3660046118f4565b610e32565b3480156104d057600080fd5b506102256104df36600461191d565b610eb2565b3480156104f057600080fd5b5061026d610f60565b34801561050557600080fd5b50610225610ffa565b34801561051a57600080fd5b5061026d610529366004611950565b611074565b34801561053a57600080fd5b5061026d61054936600461191d565b6001600160a01b031660009081526004602052604090205490565b34801561057057600080fd5b5061026d6111c5565b34801561058557600080fd5b506102256105943660046117c1565b611246565b3480156105a557600080fd5b506102256105b43660046116d0565b611396565b6102256105c736600461191d565b611419565b3480156105d857600080fd5b506102256105e7366004611746565b61148e565b3480156105f857600080fd5b5061026d60015481565b905090565b6000546001600160a01b03163314610631576040516282b42960e81b815260040160405180910390fd5b6003805473ffffffffffffffffffffffff00000000000000001916600160401b6001600160601b038416908102919091179091556040519081526002907f2f173a2352c762532a28d317c74cd47ed867076246d19a6afdb34bd98437d22a906020015b60405180910390a15050565b6040805160a0810182526002546001600160801b03808216808452600160801b90920416602083015260035467ffffffffffffffff81169383018490526001600160601b03600160401b820481166060850152600160a01b9091041660808301526000928391610735916107149042611a39565b84606001516001600160601b031685608001516001600160601b03166114e5565b9050610769670de0b6b3a76400008284602001516001600160801b031661075a6111c5565b6107649190611a4c565b611545565b9250505090565b60028054600091906001600160801b031682036107c15760405162461bcd60e51b815260206004820152600a602482015269214c495155494449545960b01b60448201526064015b60405180910390fd5b60006107cb6111c5565b8254600184015491925061082991879184916001600160801b03600160801b830481169216906108059067ffffffffffffffff1642611a39565b60018801546001600160601b03600160401b8204811691600160a01b90041661156c565b925083831015801561083b5750828110155b6108745760405162461bcd60e51b815260206004820152600a6024820152691090510813d55514155560b21b60448201526064016107b8565b6000546108a0903660011981013560f01c9003602c013560601c9033906001600160a01b0316886115a6565b60018054840190556108b1856115f4565b825483906000906108cc9084906001600160801b0316611a5f565b82546001600160801b039182166101009390930a9283029190920219909116179055506001600160a01b03861660009081526004602090815260408083208151606081018352878152808401858152428285019081528354600181810186559488529590962091516003909502909101938455519083015591516002909101555133907f3dbe987d8c318f20a1d550dd52db9a8a20cc25aab2f175c7ccafb306ee48d210906109879088908790918252602082015260400190565b60405180910390a250509392505050565b6040516323f2ebc360e21b815233600482015230602482015260448101869052606481018590526001608482015260ff841660a482015260c4810183905260e481018290526001600160a01b03871690638fcbaf0c90610104015b600060405180830381600087803b158015610a0d57600080fd5b505af1158015610a21573d6000803e3d6000fd5b50505050505050505050565b6040805160a0810182526002546001600160801b038082168352600160801b90910416602082015260035467ffffffffffffffff8116928201929092526001600160601b03600160401b830481166060830152600160a01b9092049091166080820152600090610af683610a9f6111c5565b83602001516001600160801b031684600001516001600160801b0316856040015167ffffffffffffffff1642610ad59190611a39565b86606001516001600160601b031687608001516001600160601b031661156c565b9392505050565b60046020528160005260406000208181548110610b1957600080fd5b600091825260209091206003909102018054600182015460029092015490935090915083565b6000546001600160a01b03163314610b69576040516282b42960e81b815260040160405180910390fd5b6002610b744261161e565b60018201805467ffffffffffffffff191667ffffffffffffffff929092169190911790556040514281527f587f4cf03b0981e48f7decd985bce1662f349dca9fb19d5814866634d87822c8906020015b60405180910390a150565b60008054600160a01b900460ff1615610bfa5760405162461bcd60e51b81526004016107b890611a7f565b336000908152600460205260408120805484908110610c1b57610c1b611a9f565b90600052602060002090600302019050610c42816000015482600101548360020154611644565b91508115610cd2578160016000828254610c5c9190611a39565b9250508190555081816001016000828254610c779190611a4c565b90915550610c9a90508483610c8a610da5565b6001600160a01b0316919061168c565b604051828152839033907f51c99f515c87b0d95ba97f616edd182e8f161c4932eac17c6fefe9dab58b77b19060200160405180910390a35b60008211610d0c5760405162461bcd60e51b81526020600482015260076024820152660853d55514155560ca1b60448201526064016107b8565b5092915050565b3660011981013560f01c90036040013590565b60608115610d9f5750604051818152602001600582901b808483378101805b825185018035602082018337600080823584305af4610d68573d6000803e3d6000fd5b508083526020830192503d81523d6000602083013e3d01603f0167ffffffffffffffe016818310610d455760405192508060405250505b92915050565b3660011981013560f01c9003600c013560601c90565b6000546001600160a01b03163314610de5576040516282b42960e81b815260040160405180910390fd5b600280546001600160801b03908116600160801b9184169182021782556040519081527f17aa1611ed521faae8ed083c6de85088ac9a17814957c321382686e74dc9809f90602001610694565b6000546001600160a01b03163314610e5c576040516282b42960e81b815260040160405180910390fd5b600280546fffffffffffffffffffffffffffffffff19166001600160801b03831690811782556040519081527f22bb386a0c4767ba49a1679a7b5a08e1af243a135c7336233821c0dbc1aebb1490602001610694565b600054600160a81b900460ff1615610efa5760405162461bcd60e51b815260206004820152600b60248201526a125392551250531256915160aa1b60448201526064016107b8565b6000805460ff60a01b19600161ff0160a01b03199091166001600160a01b03841617600160a81b1716600160a01b1790556040517f0e2fb031ee032dc02d8011dc50b816eb450cf856abd8261680dac74f72165bd290610bc49060011515815260200190565b6040805160a0810182526002546001600160801b03808216808452600160801b90920416602083015260035467ffffffffffffffff81169383018490526001600160601b03600160401b820481166060850152600160a01b909104166080830152600092610ff49190610fd39042611a39565b83606001516001600160601b031684608001516001600160601b03166114e5565b91505090565b6000546001600160a01b03163314611024576040516282b42960e81b815260040160405180910390fd5b6000805460ff60a01b198116600160a01b9182900460ff1615918202179091556040518181527f0e2fb031ee032dc02d8011dc50b816eb450cf856abd8261680dac74f72165bd290602001610bc4565b60008054600160a01b900460ff161561109f5760405162461bcd60e51b81526004016107b890611a7f565b815160005b8181101561119f5733600090815260046020526040812085518690849081106110cf576110cf611a9f565b6020026020010151815481106110e7576110e7611a9f565b906000526020600020906003020190506000611110826000015483600101548460020154611644565b9050808260010160008282546111269190611a4c565b9091555061113690508186611a4c565b945085838151811061114a5761114a611a9f565b6020026020010151336001600160a01b03167f51c99f515c87b0d95ba97f616edd182e8f161c4932eac17c6fefe9dab58b77b18360405161118d91815260200190565b60405180910390a350506001016110a4565b5081600160008282546111b29190611a39565b90915550610d0c90508483610c8a610da5565b60006001546111d2610da5565b6040516370a0823160e01b81523060048201526001600160a01b0391909116906370a0823190602401602060405180830381865afa158015611218573d6000803e3d6000fd5b505050506040513d601f19601f8201168201806040525081019061123c9190611ab5565b6106029190611a39565b600054600160a01b900460ff16156112705760405162461bcd60e51b81526004016107b890611a7f565b33600090815260046020526040812080548390811061129157611291611a9f565b600091825260208083206040805160608101825260039094029091018054845260018101548484015260020154838201523384526004909152909120805491925090839081106112e3576112e3611a9f565b60009182526020808320600392830201838155600180820185905560029182018590556001600160a01b038816808652600484526040808720805480850182558189528689208a519190980290970196875594880151928601929092558682015194909201939093559283905254905133917f3d7a7edfc7b138c151d31aecb9c6eb8ff81df3cabad50f3d6dddae4ccc0710439161138991878252602082015260400190565b60405180910390a3505050565b6000546001600160a01b031633146113c0576040516282b42960e81b815260040160405180910390fd5b600380546001600160a01b0316600160a01b6001600160601b038416908102919091179091556040519081526002907f21a44909ab11af57e0a9ad613d0d05503f9380b7c4a8dd2661b10ec9a7817c7e90602001610694565b6000546001600160a01b03163314611443576040516282b42960e81b815260040160405180910390fd5b600080546001600160a01b0319166001600160a01b0383169081178255604051909133917f8be0079c531659141344cd1fd0a4f28419497f9722a3daafe3b4186f6b6457e09190a350565b60405163d505accf60e01b8152336004820152306024820152604481018690526064810185905260ff8416608482015260a4810183905260c481018290526001600160a01b0387169063d505accf9060e4016109f3565b60006114f18385611ae4565b85901c9050600161150d6115058587611af8565b839086611545565b611518911c82611a39565b90506115328261271061152b8489611a39565b9190611545565b61153c9082611a4c565b95945050505050565b60008260001904841183021582026115655763ad251c276000526004601cfd5b5091020490565b600061159a61157b8789611a4c565b89611588888888886114e5565b6115929190611a4c565b8a9190611545565b98975050505050505050565b6040516323b872dd600052836020528260405281606052602060006064601c6000895af13d1560016000511417166115e657637939f4246000526004601cfd5b600060605260405250505050565b6000600160801b821061161a57604051631c073fc760e11b815260040160405180910390fd5b5090565b6000600160401b821061161a57604051631c073fc760e11b815260040160405180910390fd5b6000806116518342611a39565b905061165b610d13565b81111561166d5761166a610d13565b90505b836116828261167a610d13565b889190611545565b61153c9190611a39565b60405163a9059cbb6000528260205281604052602060006044601c6000885af13d1560016000511417166116c8576390b8ec186000526004601cfd5b604052505050565b6000602082840312156116e257600080fd5b81356001600160601b0381168114610af657600080fd5b6001600160a01b038116811461170e57600080fd5b50565b60008060006060848603121561172657600080fd5b8335611731816116f9565b95602085013595506040909401359392505050565b60008060008060008060c0878903121561175f57600080fd5b863561176a816116f9565b95506020870135945060408701359350606087013560ff8116811461178e57600080fd5b9598949750929560808101359460a0909101359350915050565b6000602082840312156117ba57600080fd5b5035919050565b600080604083850312156117d457600080fd5b82356117df816116f9565b946020939093013593505050565b6000806020838503121561180057600080fd5b823567ffffffffffffffff8082111561181857600080fd5b818501915085601f83011261182c57600080fd5b81358181111561183b57600080fd5b8660208260051b850101111561185057600080fd5b60209290920196919550909350505050565b6000602080830181845280855180835260408601915060408160051b87010192508387016000805b838110156118e657888603603f1901855282518051808852835b818110156118bf578281018a01518982018b015289016118a4565b508781018901849052601f01601f191690960187019550938601939186019160010161188a565b509398975050505050505050565b60006020828403121561190657600080fd5b81356001600160801b0381168114610af657600080fd5b60006020828403121561192f57600080fd5b8135610af6816116f9565b634e487b7160e01b600052604160045260246000fd5b6000806040838503121561196357600080fd5b823561196e816116f9565b915060208381013567ffffffffffffffff8082111561198c57600080fd5b818601915086601f8301126119a057600080fd5b8135818111156119b2576119b261193a565b8060051b604051601f19603f830116810181811085821117156119d7576119d761193a565b6040529182528482019250838101850191898311156119f557600080fd5b938501935b82851015611a13578435845293850193928501926119fa565b8096505050505050509250929050565b634e487b7160e01b600052601160045260246000fd5b81810381811115610d9f57610d9f611a23565b80820180821115610d9f57610d9f611a23565b6001600160801b03818116838216019080821115610d0c57610d0c611a23565b60208082526006908201526514105554d15160d21b604082015260600190565b634e487b7160e01b600052603260045260246000fd5b600060208284031215611ac757600080fd5b5051919050565b634e487b7160e01b600052601260045260246000fd5b600082611af357611af3611ace565b500490565b600082611b0757611b07611ace565b50069056fea264697066735822122016b87deba1621c0809136bfd0a61846ff7f78a7f9a7df64e2726ab201e3faaa064736f6c63430008110033",
    "linkReferences": {}
  },
  "methodIdentifiers": {
    "availableDebt()": "dcfc7ddf",
    "bondOf(address,uint256)": "85d28ee6",
    "getAmountOut(uint256)": "5c195217",
    "initialize(address)": "c4d66de8",
    "initialized()": "158ef93e",
    "inputToken()": "01b60ef2",
    "multicall(bytes[])": "ac9650d8",
    "outputToken()": "c1d8d1d9",
    "owner()": "8da5cb5b",
    "paused()": "5c975abb",
    "positionCountOf(address)": "d94b910e",
    "pricing()": "7ce91411",
    "purchaseBond(address,uint256,uint256)": "419265b7",
    "redeemBond(address,uint256)": "994396de",
    "redeemBondBatch(address,uint256[])": "d72ef1c0",
    "selfPermit(address,uint256,uint256,uint8,bytes32,bytes32)": "f3995c67",
    "selfPermitAllowed(address,uint256,uint256,uint8,bytes32,bytes32)": "4659a494",
    "setHalfLife(uint96)": "0c25f0f5",
    "setLastUpdate()": "9434f1b9",
    "setLevelBips(uint96)": "eea096ee",
    "setPause()": "d431b1ac",
    "setVirtualInputReserves(uint128)": "c3a13a4c",
    "setVirtualOutputReserves(uint128)": "c23b78f8",
    "spotPrice()": "398482d8",
    "term()": "a10ffbed",
    "totalDebt()": "fc7b9c18",
    "transferBond(address,uint256)": "dd5b23df",
    "transferOwnership(address)": "f2fde38b",
    "virtualInputReverves()": "c778345b"
  },
  "id": 17
}