{
  "abi": [
    {
      "inputs": [
        {
          "internalType": "address",
          "name": "_owner",
          "type": "address"
        },
        {
          "internalType": "address",
          "name": "_outputToken",
          "type": "address"
        },
        {
          "internalType": "uint256",
          "name": "_term",
          "type": "uint256"
        },
        {
          "internalType": "uint256",
          "name": "_virtualOutputReserves",
          "type": "uint256"
        }
      ],
      "stateMutability": "nonpayable",
      "type": "constructor"
    },
    {
      "anonymous": false,
      "inputs": [
        {
          "indexed": true,
          "internalType": "address",
          "name": "bonder",
          "type": "address"
        },
        {
          "indexed": true,
          "internalType": "uint256",
          "name": "bondId",
          "type": "uint256"
        },
        {
          "indexed": false,
          "internalType": "uint256",
          "name": "output",
          "type": "uint256"
        }
      ],
      "name": "BondRedeemed",
      "type": "event"
    },
    {
      "anonymous": false,
      "inputs": [
        {
          "indexed": true,
          "internalType": "address",
          "name": "bonder",
          "type": "address"
        },
        {
          "indexed": true,
          "internalType": "address",
          "name": "token",
          "type": "address"
        },
        {
          "indexed": false,
          "internalType": "uint256",
          "name": "amountIn",
          "type": "uint256"
        },
        {
          "indexed": false,
          "internalType": "uint256",
          "name": "output",
          "type": "uint256"
        }
      ],
      "name": "BondSold",
      "type": "event"
    },
    {
      "anonymous": false,
      "inputs": [
        {
          "indexed": true,
          "internalType": "address",
          "name": "sender",
          "type": "address"
        },
        {
          "indexed": true,
          "internalType": "address",
          "name": "to",
          "type": "address"
        },
        {
          "indexed": false,
          "internalType": "uint256",
          "name": "senderBondId",
          "type": "uint256"
        },
        {
          "indexed": false,
          "internalType": "uint256",
          "name": "recipientBondId",
          "type": "uint256"
        }
      ],
      "name": "BondTransfered",
      "type": "event"
    },
    {
      "anonymous": false,
      "inputs": [
        {
          "indexed": true,
          "internalType": "address",
          "name": "caller",
          "type": "address"
        },
        {
          "indexed": true,
          "internalType": "address",
          "name": "token",
          "type": "address"
        },
        {
          "indexed": false,
          "internalType": "uint256",
          "name": "virtualInputReserves",
          "type": "uint256"
        },
        {
          "indexed": false,
          "internalType": "uint256",
          "name": "halfLife",
          "type": "uint256"
        },
        {
          "indexed": false,
          "internalType": "uint256",
          "name": "levelBips",
          "type": "uint256"
        }
      ],
      "name": "InputAssetAdded",
      "type": "event"
    },
    {
      "anonymous": false,
      "inputs": [
        {
          "indexed": true,
          "internalType": "address",
          "name": "caller",
          "type": "address"
        },
        {
          "indexed": true,
          "internalType": "address",
          "name": "token",
          "type": "address"
        }
      ],
      "name": "InputAssetRemoved",
      "type": "event"
    },
    {
      "anonymous": false,
      "inputs": [
        {
          "indexed": true,
          "internalType": "address",
          "name": "user",
          "type": "address"
        },
        {
          "indexed": true,
          "internalType": "address",
          "name": "newOwner",
          "type": "address"
        }
      ],
      "name": "OwnershipTransferred",
      "type": "event"
    },
    {
      "anonymous": false,
      "inputs": [
        {
          "indexed": false,
          "internalType": "bool",
          "name": "paused",
          "type": "bool"
        }
      ],
      "name": "Paused",
      "type": "event"
    },
    {
      "anonymous": false,
      "inputs": [
        {
          "indexed": true,
          "internalType": "address",
          "name": "caller",
          "type": "address"
        },
        {
          "indexed": false,
          "internalType": "uint256",
          "name": "newVirtualOutputReserves",
          "type": "uint256"
        },
        {
          "indexed": false,
          "internalType": "address[]",
          "name": "tokens",
          "type": "address[]"
        },
        {
          "indexed": false,
          "internalType": "uint256[]",
          "name": "virtualInputReserves",
          "type": "uint256[]"
        },
        {
          "indexed": false,
          "internalType": "uint256[]",
          "name": "halfLives",
          "type": "uint256[]"
        },
        {
          "indexed": false,
          "internalType": "uint256[]",
          "name": "levelBips",
          "type": "uint256[]"
        },
        {
          "indexed": false,
          "internalType": "bool[]",
          "name": "updateElapsed",
          "type": "bool[]"
        }
      ],
      "name": "PolicyUpdate",
      "type": "event"
    },
    {
      "inputs": [
        {
          "internalType": "address",
          "name": "token",
          "type": "address"
        },
        {
          "internalType": "uint256",
          "name": "virtualInputReserves",
          "type": "uint256"
        },
        {
          "internalType": "uint256",
          "name": "halfLife",
          "type": "uint256"
        },
        {
          "internalType": "uint256",
          "name": "levelBips",
          "type": "uint256"
        }
      ],
      "name": "addQuoteAsset",
      "outputs": [],
      "stateMutability": "nonpayable",
      "type": "function"
    },
    {
      "inputs": [],
      "name": "availableSupply",
      "outputs": [
        {
          "internalType": "uint256",
          "name": "",
          "type": "uint256"
        }
      ],
      "stateMutability": "view",
      "type": "function"
    },
    {
      "inputs": [
        {
          "internalType": "address",
          "name": "token",
          "type": "address"
        },
        {
          "internalType": "uint256",
          "name": "amountIn",
          "type": "uint256"
        }
      ],
      "name": "getAmountOut",
      "outputs": [
        {
          "internalType": "uint256",
          "name": "output",
          "type": "uint256"
        }
      ],
      "stateMutability": "view",
      "type": "function"
    },
    {
      "inputs": [],
      "name": "outputToken",
      "outputs": [
        {
          "internalType": "address",
          "name": "",
          "type": "address"
        }
      ],
      "stateMutability": "view",
      "type": "function"
    },
    {
      "inputs": [],
      "name": "owner",
      "outputs": [
        {
          "internalType": "address",
          "name": "",
          "type": "address"
        }
      ],
      "stateMutability": "view",
      "type": "function"
    },
    {
      "inputs": [],
      "name": "paused",
      "outputs": [
        {
          "internalType": "bool",
          "name": "",
          "type": "bool"
        }
      ],
      "stateMutability": "view",
      "type": "function"
    },
    {
      "inputs": [
        {
          "internalType": "uint256",
          "name": "newVirtualOutputReserves",
          "type": "uint256"
        },
        {
          "internalType": "address[]",
          "name": "tokens",
          "type": "address[]"
        },
        {
          "internalType": "uint256[]",
          "name": "virtualInputReserves",
          "type": "uint256[]"
        },
        {
          "internalType": "uint256[]",
          "name": "halfLives",
          "type": "uint256[]"
        },
        {
          "internalType": "uint256[]",
          "name": "levelBips",
          "type": "uint256[]"
        },
        {
          "internalType": "bool[]",
          "name": "updateElapsed",
          "type": "bool[]"
        }
      ],
      "name": "policyUpdate",
      "outputs": [],
      "stateMutability": "nonpayable",
      "type": "function"
    },
    {
      "inputs": [
        {
          "internalType": "address",
          "name": "account",
          "type": "address"
        }
      ],
      "name": "positionCountOf",
      "outputs": [
        {
          "internalType": "uint256",
          "name": "",
          "type": "uint256"
        }
      ],
      "stateMutability": "view",
      "type": "function"
    },
    {
      "inputs": [
        {
          "internalType": "address",
          "name": "",
          "type": "address"
        },
        {
          "internalType": "uint256",
          "name": "",
          "type": "uint256"
        }
      ],
      "name": "positions",
      "outputs": [
        {
          "internalType": "uint256",
          "name": "owed",
          "type": "uint256"
        },
        {
          "internalType": "uint256",
          "name": "redeemed",
          "type": "uint256"
        },
        {
          "internalType": "uint256",
          "name": "creation",
          "type": "uint256"
        }
      ],
      "stateMutability": "view",
      "type": "function"
    },
    {
      "inputs": [
        {
          "internalType": "address",
          "name": "to",
          "type": "address"
        },
        {
          "internalType": "address",
          "name": "token",
          "type": "address"
        },
        {
          "internalType": "uint256",
          "name": "amountIn",
          "type": "uint256"
        },
        {
          "internalType": "uint256",
          "name": "minOutput",
          "type": "uint256"
        }
      ],
      "name": "purchaseBond",
      "outputs": [
        {
          "internalType": "uint256",
          "name": "output",
          "type": "uint256"
        }
      ],
      "stateMutability": "nonpayable",
      "type": "function"
    },
    {
      "inputs": [
        {
          "internalType": "address",
          "name": "",
          "type": "address"
        }
      ],
      "name": "quoteInfo",
      "outputs": [
        {
          "internalType": "uint256",
          "name": "virtualInputReserves",
          "type": "uint256"
        },
        {
          "internalType": "uint256",
          "name": "lastUpdate",
          "type": "uint256"
        },
        {
          "internalType": "uint256",
          "name": "halfLife",
          "type": "uint256"
        },
        {
          "internalType": "uint256",
          "name": "levelBips",
          "type": "uint256"
        }
      ],
      "stateMutability": "view",
      "type": "function"
    },
    {
      "inputs": [
        {
          "internalType": "address",
          "name": "to",
          "type": "address"
        },
        {
          "internalType": "uint256",
          "name": "bondId",
          "type": "uint256"
        }
      ],
      "name": "redeemBond",
      "outputs": [
        {
          "internalType": "uint256",
          "name": "output",
          "type": "uint256"
        }
      ],
      "stateMutability": "nonpayable",
      "type": "function"
    },
    {
      "inputs": [
        {
          "internalType": "address",
          "name": "to",
          "type": "address"
        },
        {
          "internalType": "uint256[]",
          "name": "bondIds",
          "type": "uint256[]"
        }
      ],
      "name": "redeemBondBatch",
      "outputs": [
        {
          "internalType": "uint256",
          "name": "totalOutput",
          "type": "uint256"
        }
      ],
      "stateMutability": "nonpayable",
      "type": "function"
    },
    {
      "inputs": [
        {
          "internalType": "address",
          "name": "token",
          "type": "address"
        }
      ],
      "name": "removeQuoteAsset",
      "outputs": [],
      "stateMutability": "nonpayable",
      "type": "function"
    },
    {
      "inputs": [],
      "name": "setPause",
      "outputs": [],
      "stateMutability": "nonpayable",
      "type": "function"
    },
    {
      "inputs": [
        {
          "internalType": "address",
          "name": "token",
          "type": "address"
        }
      ],
      "name": "spotPriceFor",
      "outputs": [
        {
          "internalType": "uint256",
          "name": "",
          "type": "uint256"
        }
      ],
      "stateMutability": "view",
      "type": "function"
    },
    {
      "inputs": [],
      "name": "term",
      "outputs": [
        {
          "internalType": "uint256",
          "name": "",
          "type": "uint256"
        }
      ],
      "stateMutability": "view",
      "type": "function"
    },
    {
      "inputs": [],
      "name": "totalAssets",
      "outputs": [
        {
          "internalType": "uint256",
          "name": "",
          "type": "uint256"
        }
      ],
      "stateMutability": "view",
      "type": "function"
    },
    {
      "inputs": [],
      "name": "totalDebt",
      "outputs": [
        {
          "internalType": "uint256",
          "name": "",
          "type": "uint256"
        }
      ],
      "stateMutability": "view",
      "type": "function"
    },
    {
      "inputs": [
        {
          "internalType": "address",
          "name": "to",
          "type": "address"
        },
        {
          "internalType": "uint256",
          "name": "bondId",
          "type": "uint256"
        }
      ],
      "name": "transferBond",
      "outputs": [],
      "stateMutability": "nonpayable",
      "type": "function"
    },
    {
      "inputs": [
        {
          "internalType": "address",
          "name": "newOwner",
          "type": "address"
        }
      ],
      "name": "transferOwnership",
      "outputs": [],
      "stateMutability": "nonpayable",
      "type": "function"
    },
    {
      "inputs": [
        {
          "internalType": "address",
          "name": "token",
          "type": "address"
        }
      ],
      "name": "virtualInputRevervesFor",
      "outputs": [
        {
          "internalType": "uint256",
          "name": "",
          "type": "uint256"
        }
      ],
      "stateMutability": "view",
      "type": "function"
    },
    {
      "inputs": [],
      "name": "virtualOutputReserves",
      "outputs": [
        {
          "internalType": "uint256",
          "name": "",
          "type": "uint256"
        }
      ],
      "stateMutability": "view",
      "type": "function"
    }
  ],
  "bytecode": {
    "object": "0x60c06040523480156200001157600080fd5b5060405162001cde38038062001cde833981016040819052620000349162000102565b600080546001600160a01b0319166001600160a01b03861690811782556040518692907f8be0079c531659141344cd1fd0a4f28419497f9722a3daafe3b4186f6b6457e0908290a35060808290526001600160a01b03831660a05260028190556000805460ff60a01b1916600160a01b179055604051600181527f0e2fb031ee032dc02d8011dc50b816eb450cf856abd8261680dac74f72165bd29060200160405180910390a1505050506200014a565b80516001600160a01b0381168114620000fd57600080fd5b919050565b600080600080608085870312156200011957600080fd5b6200012485620000e5565b93506200013460208601620000e5565b6040860151606090960151949790965092505050565b60805160a051611b36620001a8600039600081816102f1015281816107730152818161086601528181610afb01528181610d6d0152610fea0152600081816102890152818161143b01528181611464015261148c0152611b366000f3fe608060405234801561001057600080fd5b506004361061014d5760003560e01c8063a10ffbed116100c3578063d72ef1c01161007c578063d72ef1c01461032e578063d94b910e14610341578063dd5b23df1461036a578063ddbfd9411461037d578063f2fde38b14610390578063fc7b9c18146103a357600080fd5b8063a10ffbed14610284578063b2779a8d146102ab578063c1be6677146102be578063c1d8d1d9146102ec578063ca706bcf14610313578063d431b1ac1461032657600080fd5b8063715f702f11610115578063715f702f1461020f5780637ecc2b56146102225780638da5cb5b1461022a578063973cb37814610255578063994396de146102685780639d98771e1461027b57600080fd5b806301e1d11414610152578063166afeb31461016e5780635c975abb146101c3578063612fe795146101e75780636e50c259146101fa575b600080fd5b61015b60035481565b6040519081526020015b60405180910390f35b6101a361017c366004611554565b60046020526000908152604090208054600182015460028301546003909301549192909184565b604080519485526020850193909352918301526060820152608001610165565b6000546101d790600160a01b900460ff1681565b6040519015158152602001610165565b61015b6101f5366004611554565b6103ac565b61020d610208366004611711565b610447565b005b61015b61021d366004611554565b6106df565b61015b61074f565b60005461023d906001600160a01b031681565b6040516001600160a01b039091168152602001610165565b61015b6102633660046117eb565b6107ed565b61015b61027636600461182d565b610a40565b61015b60025481565b61015b7f000000000000000000000000000000000000000000000000000000000000000081565b61020d6102b9366004611857565b610b9b565b6102d16102cc36600461182d565b610cc2565b60408051938452602084019290925290820152606001610165565b61023d7f000000000000000000000000000000000000000000000000000000000000000081565b61015b61032136600461182d565b610d04565b61020d610e19565b61015b61033c366004611890565b610e99565b61015b61034f366004611554565b6001600160a01b031660009081526005602052604090205490565b61020d61037836600461182d565b611011565b61020d61038b366004611554565b611161565b61020d61039e366004611554565b61127c565b61015b60015481565b6001600160a01b038116600090815260046020908152604080832081516080810183528154808252600183015494820185905260028301549382019390935260039091015460608201529183916104169161040790426118f4565b846040015185606001516112f1565b905061043f670de0b6b3a76400008260025461043061074f565b61043a919061190d565b611348565b949350505050565b6000546001600160a01b0316331461047a5760405162461bcd60e51b815260040161047190611920565b60405180910390fd5b85156104865760028690555b8451801561068b5784518114801561049e5750835181145b80156104aa5750825181145b6104e05760405162461bcd60e51b8152602060048201526007602482015266042988a9c8ea8960cb1b6044820152606401610471565b60005b818110156106895760008582815181106104ff576104ff611946565b6020026020010151116105435760405162461bcd60e51b815260206004820152600c60248201526b4241442048414c464c49464560a01b6044820152606401610471565b604051806080016040528087838151811061056057610560611946565b6020026020010151815260200184838151811061057f5761057f611946565b60200260200101516105d257600460008a85815181106105a1576105a1611946565b60200260200101516001600160a01b03166001600160a01b03168152602001908152602001600020600101546105d4565b425b81526020018683815181106105eb576105eb611946565b6020026020010151815260200185838151811061060a5761060a611946565b60200260200101518152506004600089848151811061062b5761062b611946565b60200260200101516001600160a01b03166001600160a01b03168152602001908152602001600020600082015181600001556020820151816001015560408201518160020155606082015181600301559050508060010190506104e3565b505b336001600160a01b03167fd6795a42705fb8fd71139727d8071478aa8a9790878e32aa5f96e979a65c48188888888888886040516106ce969594939291906119c9565b60405180910390a250505050505050565b6001600160a01b0381166000908152600460209081526040808320815160808101835281548082526001830154948201859052600283015493820193909352600390910154606082015291610748919061073990426118f4565b836040015184606001516112f1565b9392505050565b6001546040516370a0823160e01b8152306004820152600091906001600160a01b037f000000000000000000000000000000000000000000000000000000000000000016906370a0823190602401602060405180830381865afa1580156107ba573d6000803e3d6000fd5b505050506040513d601f19601f820116820180604052508101906107de9190611a72565b6107e891906118f4565b905090565b6001600160a01b0383166000908152600460205260408120805482036108425760405162461bcd60e51b815260206004820152600a602482015269214c495155494449545960b01b6044820152606401610471565b6001546040516370a0823160e01b8152306004820152600091906001600160a01b037f000000000000000000000000000000000000000000000000000000000000000016906370a0823190602401602060405180830381865afa1580156108ad573d6000803e3d6000fd5b505050506040513d601f19601f820116820180604052508101906108d19190611a72565b6108db91906118f4565b9050610909858260025485600001548660010154426108fa91906118f4565b87600201548860030154611366565b925083831015801561091b5750828110155b6109545760405162461bcd60e51b815260206004820152600a6024820152691090510813d55514155560b21b6044820152606401610471565b600054610970906001600160a01b0388811691339116886113a0565b600180548401905581548590839060009061098c90849061190d565b90915550506001600160a01b038088166000908152600560209081526040808320815160608101835288815280840185815242828501908152835460018181018655948852959096209151600390950290910193845551908301559151600290910155519087169033907f8e5101242b74cdfce3a74e64844cf2cc76186195bf6d8cfe04c7f519f64dfbb390610a2e9089908890918252602082015260400190565b60405180910390a35050949350505050565b60008054600160a01b900460ff1615610a6b5760405162461bcd60e51b815260040161047190611a8b565b336000908152600560205260408120805484908110610a8c57610a8c611946565b90600052602060002090600302019050610ab381600001548260010154836002015461142a565b91508115610b5a578160016000828254610acd91906118f4565b9250508190555081816001016000828254610ae8919061190d565b90915550610b2290506001600160a01b037f00000000000000000000000000000000000000000000000000000000000000001685846114ba565b604051828152839033907f51c99f515c87b0d95ba97f616edd182e8f161c4932eac17c6fefe9dab58b77b19060200160405180910390a35b60008211610b945760405162461bcd60e51b81526020600482015260076024820152660853d55514155560ca1b6044820152606401610471565b5092915050565b6000546001600160a01b03163314610bc55760405162461bcd60e51b815260040161047190611920565b6001600160a01b03841660009081526004602052604090206001015415610c1a5760405162461bcd60e51b81526020600482015260096024820152680851561254d511539560ba1b6044820152606401610471565b60038054600190810182556040805160808101825286815242602080830191825282840188815260608085018981526001600160a01b038d1660008181526004865288902096518755945197860197909755905160028501559451929095019190915581518781529384018690529083018490529133917fb77ca2e0349708985dbcf613b1e704209d8f1ba8a2711021b807126b8b0b98b1910160405180910390a350505050565b60056020528160005260406000208181548110610cde57600080fd5b600091825260209091206003909102018054600182015460029092015490935090915083565b6001600160a01b038281166000908152600460208181526040808420815160808101835281548152600180830154948201949094526002820154818401526003909101546060820152915490516370a0823160e01b8152309381019390935292939092849290917f000000000000000000000000000000000000000000000000000000000000000016906370a0823190602401602060405180830381865afa158015610db4573d6000803e3d6000fd5b505050506040513d601f19601f82011682018060405250810190610dd89190611a72565b610de291906118f4565b9050610e1084826002548560000151866020015142610e0191906118f4565b87604001518860600151611366565b95945050505050565b6000546001600160a01b03163314610e435760405162461bcd60e51b815260040161047190611920565b6000805460ff60a01b198116600160a01b9182900460ff1615918202179091556040518181527f0e2fb031ee032dc02d8011dc50b816eb450cf856abd8261680dac74f72165bd29060200160405180910390a150565b60008054600160a01b900460ff1615610ec45760405162461bcd60e51b815260040161047190611a8b565b815160005b81811015610fc4573360009081526005602052604081208551869084908110610ef457610ef4611946565b602002602001015181548110610f0c57610f0c611946565b906000526020600020906003020190506000610f3582600001548360010154846002015461142a565b905080826001016000828254610f4b919061190d565b90915550610f5b9050818661190d565b9450858381518110610f6f57610f6f611946565b6020026020010151336001600160a01b03167f51c99f515c87b0d95ba97f616edd182e8f161c4932eac17c6fefe9dab58b77b183604051610fb291815260200190565b60405180910390a35050600101610ec9565b508160016000828254610fd791906118f4565b90915550610b9490506001600160a01b037f00000000000000000000000000000000000000000000000000000000000000001685846114ba565b600054600160a01b900460ff161561103b5760405162461bcd60e51b815260040161047190611a8b565b33600090815260056020526040812080548390811061105c5761105c611946565b600091825260208083206040805160608101825260039094029091018054845260018101548484015260020154838201523384526005909152909120805491925090839081106110ae576110ae611946565b60009182526020808320600392830201838155600180820185905560029182018590556001600160a01b038816808652600584526040808720805480850182558189528689208a519190980290970196875594880151928601929092558682015194909201939093559283905254905133917f3d7a7edfc7b138c151d31aecb9c6eb8ff81df3cabad50f3d6dddae4ccc0710439161115491878252602082015260400190565b60405180910390a3505050565b6000546001600160a01b0316331461118b5760405162461bcd60e51b815260040161047190611920565b6001600160a01b03811660009081526004602090815260408083208151608081018352815481526001820154938101849052600282015492810192909252600301546060820152910361120f5760405162461bcd60e51b815260206004820152600c60248201526b085393d391561254d511539560a21b6044820152606401610471565b60036000815461121e90611aab565b909155506001600160a01b03821660008181526004602052604080822082815560018101839055600281018390556003018290555133917f9b0b658574799baf31f8c52b9140477861460c951e7bffc6e56b270bb8af420991a35050565b6000546001600160a01b031633146112a65760405162461bcd60e51b815260040161047190611920565b600080546001600160a01b0319166001600160a01b0383169081178255604051909133917f8be0079c531659141344cd1fd0a4f28419497f9722a3daafe3b4186f6b6457e09190a350565b60006112fd8385611ad8565b85901c905060016113196113118587611aec565b839086611348565b611324911c826118f4565b905061133e8261271061133784896118f4565b9190611348565b610e10908261190d565b600082600019048411830215820261135f57600080fd5b5091020490565b6000611394611375878961190d565b89611382888888886112f1565b61138c919061190d565b8a9190611348565b98975050505050505050565b60006040516323b872dd60e01b81528460048201528360248201528260448201526020600060648360008a5af13d15601f3d11600160005114161716915050806114235760405162461bcd60e51b81526020600482015260146024820152731514905394d1915497d19493d357d1905253115160621b6044820152606401610471565b5050505050565b60008061143783426118f4565b90507f000000000000000000000000000000000000000000000000000000000000000081111561148457507f00000000000000000000000000000000000000000000000000000000000000005b836114b086837f0000000000000000000000000000000000000000000000000000000000000000611348565b610e1091906118f4565b600060405163a9059cbb60e01b8152836004820152826024820152602060006044836000895af13d15601f3d11600160005114161716915050806115325760405162461bcd60e51b815260206004820152600f60248201526e1514905394d1915497d19052531151608a1b6044820152606401610471565b50505050565b80356001600160a01b038116811461154f57600080fd5b919050565b60006020828403121561156657600080fd5b61074882611538565b634e487b7160e01b600052604160045260246000fd5b604051601f8201601f1916810167ffffffffffffffff811182821017156115ae576115ae61156f565b604052919050565b600067ffffffffffffffff8211156115d0576115d061156f565b5060051b60200190565b600082601f8301126115eb57600080fd5b813560206116006115fb836115b6565b611585565b82815260059290921b8401810191818101908684111561161f57600080fd5b8286015b848110156116415761163481611538565b8352918301918301611623565b509695505050505050565b600082601f83011261165d57600080fd5b8135602061166d6115fb836115b6565b82815260059290921b8401810191818101908684111561168c57600080fd5b8286015b848110156116415780358352918301918301611690565b600082601f8301126116b857600080fd5b813560206116c86115fb836115b6565b82815260059290921b840181019181810190868411156116e757600080fd5b8286015b8481101561164157803580151581146117045760008081fd5b83529183019183016116eb565b60008060008060008060c0878903121561172a57600080fd5b86359550602087013567ffffffffffffffff8082111561174957600080fd5b6117558a838b016115da565b9650604089013591508082111561176b57600080fd5b6117778a838b0161164c565b9550606089013591508082111561178d57600080fd5b6117998a838b0161164c565b945060808901359150808211156117af57600080fd5b6117bb8a838b0161164c565b935060a08901359150808211156117d157600080fd5b506117de89828a016116a7565b9150509295509295509295565b6000806000806080858703121561180157600080fd5b61180a85611538565b935061181860208601611538565b93969395505050506040820135916060013590565b6000806040838503121561184057600080fd5b61184983611538565b946020939093013593505050565b6000806000806080858703121561186d57600080fd5b61187685611538565b966020860135965060408601359560600135945092505050565b600080604083850312156118a357600080fd5b6118ac83611538565b9150602083013567ffffffffffffffff8111156118c857600080fd5b6118d48582860161164c565b9150509250929050565b634e487b7160e01b600052601160045260246000fd5b81810381811115611907576119076118de565b92915050565b80820180821115611907576119076118de565b6020808252600c908201526b15539055551213d49256915160a21b604082015260600190565b634e487b7160e01b600052603260045260246000fd5b600081518084526020808501945080840160005b8381101561198c57815187529582019590820190600101611970565b509495945050505050565b600081518084526020808501945080840160005b8381101561198c5781511515875295820195908201906001016119ab565b600060c08201888352602060c08185015281895180845260e086019150828b01935060005b81811015611a135784516001600160a01b0316835293830193918301916001016119ee565b50508481036040860152611a27818a61195c565b925050508281036060840152611a3d818761195c565b90508281036080840152611a51818661195c565b905082810360a0840152611a658185611997565b9998505050505050505050565b600060208284031215611a8457600080fd5b5051919050565b60208082526006908201526514105554d15160d21b604082015260600190565b600081611aba57611aba6118de565b506000190190565b634e487b7160e01b600052601260045260246000fd5b600082611ae757611ae7611ac2565b500490565b600082611afb57611afb611ac2565b50069056fea2646970667358221220d77cc4c6a3ff1061f171685e4f68adbd6a1dfe273e0685b4bbb9ab41bfcec56d64736f6c63430008110033",
    "linkReferences": {}
  },
  "methodIdentifiers": {
    "addQuoteAsset(address,uint256,uint256,uint256)": "b2779a8d",
    "availableSupply()": "7ecc2b56",
    "getAmountOut(address,uint256)": "ca706bcf",
    "outputToken()": "c1d8d1d9",
    "owner()": "8da5cb5b",
    "paused()": "5c975abb",
    "policyUpdate(uint256,address[],uint256[],uint256[],uint256[],bool[])": "6e50c259",
    "positionCountOf(address)": "d94b910e",
    "positions(address,uint256)": "c1be6677",
    "purchaseBond(address,address,uint256,uint256)": "973cb378",
    "quoteInfo(address)": "166afeb3",
    "redeemBond(address,uint256)": "994396de",
    "redeemBondBatch(address,uint256[])": "d72ef1c0",
    "removeQuoteAsset(address)": "ddbfd941",
    "setPause()": "d431b1ac",
    "spotPriceFor(address)": "612fe795",
    "term()": "a10ffbed",
    "totalAssets()": "01e1d114",
    "totalDebt()": "fc7b9c18",
    "transferBond(address,uint256)": "dd5b23df",
    "transferOwnership(address)": "f2fde38b",
    "virtualInputRevervesFor(address)": "715f702f",
    "virtualOutputReserves()": "9d98771e"
  },
  "id": 10
}